{
    "abi": [
        {
            "type": "constructor",
            "inputs": [
                {
                    "name": "_collegeAddress",
                    "type": "address",
                    "internalType": "address"
                }
            ],
            "stateMutability": "nonpayable"
        },
        {
            "type": "function",
            "name": "certificateExists",
            "inputs": [
                {
                    "name": "",
                    "type": "uint256",
                    "internalType": "uint256"
                }
            ],
            "outputs": [
                {
                    "name": "",
                    "type": "bool",
                    "internalType": "bool"
                }
            ],
            "stateMutability": "view"
        },
        {
            "type": "function",
            "name": "certificates",
            "inputs": [
                {
                    "name": "",
                    "type": "uint256",
                    "internalType": "uint256"
                }
            ],
            "outputs": [
                {
                    "name": "certificateId",
                    "type": "uint256",
                    "internalType": "uint256"
                },
                {
                    "name": "studentIdentifier",
                    "type": "string",
                    "internalType": "string"
                },
                {
                    "name": "certificateHash",
                    "type": "bytes32",
                    "internalType": "bytes32"
                },
                {
                    "name": "metadataURI",
                    "type": "string",
                    "internalType": "string"
                },
                {
                    "name": "issuedAt",
                    "type": "uint256",
                    "internalType": "uint256"
                },
                {
                    "name": "revoked",
                    "type": "bool",
                    "internalType": "bool"
                }
            ],
            "stateMutability": "view"
        },
        {
            "type": "function",
            "name": "collegeAddress",
            "inputs": [],
            "outputs": [
                {
                    "name": "",
                    "type": "address",
                    "internalType": "address"
                }
            ],
            "stateMutability": "view"
        },
        {
            "type": "function",
            "name": "doesCertificateExist",
            "inputs": [
                {
                    "name": "certificateId",
                    "type": "uint256",
                    "internalType": "uint256"
                }
            ],
            "outputs": [
                {
                    "name": "",
                    "type": "bool",
                    "internalType": "bool"
                }
            ],
            "stateMutability": "view"
        },
        {
            "type": "function",
            "name": "doesHashExist",
            "inputs": [
                {
                    "name": "certificateHash",
                    "type": "bytes32",
                    "internalType": "bytes32"
                }
            ],
            "outputs": [
                {
                    "name": "",
                    "type": "bool",
                    "internalType": "bool"
                }
            ],
            "stateMutability": "view"
        },
        {
            "type": "function",
            "name": "getCertificate",
            "inputs": [
                {
                    "name": "certificateId",
                    "type": "uint256",
                    "internalType": "uint256"
                }
            ],
            "outputs": [
                {
                    "name": "",
                    "type": "tuple",
                    "internalType": "struct CertificateVerification.Certificate",
                    "components": [
                        {
                            "name": "certificateId",
                            "type": "uint256",
                            "internalType": "uint256"
                        },
                        {
                            "name": "studentIdentifier",
                            "type": "string",
                            "internalType": "string"
                        },
                        {
                            "name": "certificateHash",
                            "type": "bytes32",
                            "internalType": "bytes32"
                        },
                        {
                            "name": "metadataURI",
                            "type": "string",
                            "internalType": "string"
                        },
                        {
                            "name": "issuedAt",
                            "type": "uint256",
                            "internalType": "uint256"
                        },
                        {
                            "name": "revoked",
                            "type": "bool",
                            "internalType": "bool"
                        }
                    ]
                }
            ],
            "stateMutability": "view"
        },
        {
            "type": "function",
            "name": "getTotalCertificates",
            "inputs": [],
            "outputs": [
                {
                    "name": "",
                    "type": "uint256",
                    "internalType": "uint256"
                }
            ],
            "stateMutability": "view"
        },
        {
            "type": "function",
            "name": "hashExists",
            "inputs": [
                {
                    "name": "",
                    "type": "bytes32",
                    "internalType": "bytes32"
                }
            ],
            "outputs": [
                {
                    "name": "",
                    "type": "bool",
                    "internalType": "bool"
                }
            ],
            "stateMutability": "view"
        },
        {
            "type": "function",
            "name": "issueCertificate",
            "inputs": [
                {
                    "name": "studentIdentifier",
                    "type": "string",
                    "internalType": "string"
                },
                {
                    "name": "certificateHash",
                    "type": "bytes32",
                    "internalType": "bytes32"
                },
                {
                    "name": "metadataURI",
                    "type": "string",
                    "internalType": "string"
                }
            ],
            "outputs": [
                {
                    "name": "",
                    "type": "uint256",
                    "internalType": "uint256"
                }
            ],
            "stateMutability": "nonpayable"
        },
        {
            "type": "function",
            "name": "revokeCertificate",
            "inputs": [
                {
                    "name": "certificateId",
                    "type": "uint256",
                    "internalType": "uint256"
                }
            ],
            "outputs": [],
            "stateMutability": "nonpayable"
        },
        {
            "type": "function",
            "name": "verifyCertificate",
            "inputs": [
                {
                    "name": "certificateId",
                    "type": "uint256",
                    "internalType": "uint256"
                }
            ],
            "outputs": [
                {
                    "name": "",
                    "type": "bool",
                    "internalType": "bool"
                }
            ],
            "stateMutability": "view"
        },
        {
            "type": "function",
            "name": "verifyCertificateByHash",
            "inputs": [
                {
                    "name": "certificateId",
                    "type": "uint256",
                    "internalType": "uint256"
                },
                {
                    "name": "certificateHash",
                    "type": "bytes32",
                    "internalType": "bytes32"
                }
            ],
            "outputs": [
                {
                    "name": "",
                    "type": "bool",
                    "internalType": "bool"
                }
            ],
            "stateMutability": "view"
        },
        {
            "type": "event",
            "name": "CertificateIssued",
            "inputs": [
                {
                    "name": "certificateId",
                    "type": "uint256",
                    "indexed": true,
                    "internalType": "uint256"
                },
                {
                    "name": "studentIdentifier",
                    "type": "string",
                    "indexed": false,
                    "internalType": "string"
                },
                {
                    "name": "certificateHash",
                    "type": "bytes32",
                    "indexed": false,
                    "internalType": "bytes32"
                },
                {
                    "name": "metadataURI",
                    "type": "string",
                    "indexed": false,
                    "internalType": "string"
                },
                {
                    "name": "issuedAt",
                    "type": "uint256",
                    "indexed": false,
                    "internalType": "uint256"
                }
            ],
            "anonymous": false
        },
        {
            "type": "event",
            "name": "CertificateRevoked",
            "inputs": [
                {
                    "name": "certificateId",
                    "type": "uint256",
                    "indexed": true,
                    "internalType": "uint256"
                },
                {
                    "name": "revokedAt",
                    "type": "uint256",
                    "indexed": false,
                    "internalType": "uint256"
                }
            ],
            "anonymous": false
        },
        {
            "type": "error",
            "name": "CertificateAlreadyRevoked",
            "inputs": []
        },
        {
            "type": "error",
            "name": "CertificateDoesNotExist",
            "inputs": []
        },
        {
            "type": "error",
            "name": "CertificateHashAlreadyExists",
            "inputs": []
        },
        {
            "type": "error",
            "name": "InvalidCertificateHash",
            "inputs": []
        },
        {
            "type": "error",
            "name": "InvalidMetadataURI",
            "inputs": []
        },
        {
            "type": "error",
            "name": "InvalidStudentIdentifier",
            "inputs": []
        },
        {
            "type": "error",
            "name": "OnlyCollegeAllowed",
            "inputs": []
        }
    ],
    "bytecode": {
        "object": "0x60a060405234801561000f575f5ffd5b5060405161191c38038061191c8339818101604052810190610031919061013e565b5f73ffffffffffffffffffffffffffffffffffffffff168173ffffffffffffffffffffffffffffffffffffffff160361009f576040517f08c379a0000000000000000000000000000000000000000000000000000000008152600401610096906101c3565b60405180910390fd5b8073ffffffffffffffffffffffffffffffffffffffff1660808173ffffffffffffffffffffffffffffffffffffffff168152505060015f81905550506101e1565b5f5ffd5b5f73ffffffffffffffffffffffffffffffffffffffff82169050919050565b5f61010d826100e4565b9050919050565b61011d81610103565b8114610127575f5ffd5b50565b5f8151905061013881610114565b92915050565b5f60208284031215610153576101526100e0565b5b5f6101608482850161012a565b91505092915050565b5f82825260208201905092915050565b7f496e76616c696420636f6c6c65676520616464726573730000000000000000005f82015250565b5f6101ad601783610169565b91506101b882610179565b602082019050919050565b5f6020820190508181035f8301526101da816101a1565b9050919050565b6080516117156102075f395f81816102c5015281816106430152610a2101526117155ff3fe608060405234801561000f575f5ffd5b50600436106100b1575f3560e01c8063545a5f5d1161006f578063545a5f5d146101af57806365f8d239146101df578063663b3e221461020f5780637843bb79146102445780639aa3d45714610262578063b535b5c314610292576100b1565b8062235df1146100b557806306f5497e146100e55780631692a942146101015780631ee667701461013157806351640fee1461016157806353bda46914610191575b5f5ffd5b6100cf60048036038101906100ca9190610e97565b6102c2565b6040516100dc9190610f40565b60405180910390f35b6100ff60048036038101906100fa9190610f83565b610641565b005b61011b60048036038101906101169190610f83565b6107ce565b6040516101289190610fc8565b60405180910390f35b61014b60048036038101906101469190610fe1565b610823565b6040516101589190610fc8565b60405180910390f35b61017b60048036038101906101769190610f83565b610849565b6040516101889190611136565b60405180910390f35b610199610a1f565b6040516101a69190611195565b60405180910390f35b6101c960048036038101906101c491906111ae565b610a43565b6040516101d69190610fc8565b60405180910390f35b6101f960048036038101906101f49190610f83565b610c03565b6040516102069190610fc8565b60405180910390f35b61022960048036038101906102249190610f83565b610c20565b60405161023b96959493929190611243565b60405180910390f35b61024c610d70565b6040516102599190610f40565b60405180910390f35b61027c60048036038101906102779190610f83565b610d84565b6040516102899190610fc8565b60405180910390f35b6102ac60048036038101906102a79190610fe1565b610daa565b6040516102b99190610fc8565b60405180910390f35b5f7f000000000000000000000000000000000000000000000000000000000000000073ffffffffffffffffffffffffffffffffffffffff163373ffffffffffffffffffffffffffffffffffffffff1614610348576040517fd4f3c24c00000000000000000000000000000000000000000000000000000000815260040160405180910390fd5b5f8686905003610384576040517fb6b8855500000000000000000000000000000000000000000000000000000000815260040160405180910390fd5b5f5f1b84036103bf576040517fa00d00e600000000000000000000000000000000000000000000000000000000815260040160405180910390fd5b5f83839050036103fb576040517feec403f000000000000000000000000000000000000000000000000000000000815260040160405180910390fd5b60025f8581526020019081526020015f205f9054906101000a900460ff1615610450576040517fe9f469db00000000000000000000000000000000000000000000000000000000815260040160405180910390fd5b5f5f5490505f5f815480929190610466906112dd565b91905055505f6040518060c0016040528083815260200189898080601f0160208091040260200160405190810160405280939291908181526020018383808284375f81840152601f19601f82011690508083019250505050505050815260200187815260200186868080601f0160208091040260200160405190810160405280939291908181526020018383808284375f81840152601f19601f8201169050808301925050505050505081526020014281526020015f151581525090508060015f8481526020019081526020015f205f820151815f01556020820151816001019081610552919061154e565b50604082015181600201556060820151816003019081610572919061154e565b506080820151816004015560a0820151816005015f6101000a81548160ff021916908315150217905550905050600160035f8481526020019081526020015f205f6101000a81548160ff021916908315150217905550600160025f8881526020019081526020015f205f6101000a81548160ff021916908315150217905550817fec520826e005a12a0412872e6a73c7f76188757988f432621545e0f2618fff0c89898989894260405161062b96959493929190611657565b60405180910390a2819250505095945050505050565b7f000000000000000000000000000000000000000000000000000000000000000073ffffffffffffffffffffffffffffffffffffffff163373ffffffffffffffffffffffffffffffffffffffff16146106c6576040517fd4f3c24c00000000000000000000000000000000000000000000000000000000815260040160405180910390fd5b60035f8281526020019081526020015f205f9054906101000a900460ff1661071a576040517f2779833b00000000000000000000000000000000000000000000000000000000815260040160405180910390fd5b5f60015f8381526020019081526020015f209050806005015f9054906101000a900460ff1615610776576040517fdd01e6e800000000000000000000000000000000000000000000000000000000815260040160405180910390fd5b6001816005015f6101000a81548160ff021916908315150217905550817fe57f12b58c8bf97829ab481475dd56afb427ddbd8d7563db343ef081b4485b78426040516107c29190610f40565b60405180910390a25050565b5f60035f8381526020019081526020015f205f9054906101000a900460ff166107f9575f905061081e565b60015f8381526020019081526020015f206005015f9054906101000a900460ff161590505b919050565b5f60025f8381526020019081526020015f205f9054906101000a900460ff169050919050565b610851610dc7565b60035f8381526020019081526020015f205f9054906101000a900460ff166108a5576040517f2779833b00000000000000000000000000000000000000000000000000000000815260040160405180910390fd5b60015f8381526020019081526020015f206040518060c00160405290815f82015481526020016001820180546108da9061137e565b80601f01602080910402602001604051908101604052809291908181526020018280546109069061137e565b80156109515780601f1061092857610100808354040283529160200191610951565b820191905f5260205f20905b81548152906001019060200180831161093457829003601f168201915b50505050508152602001600282015481526020016003820180546109749061137e565b80601f01602080910402602001604051908101604052809291908181526020018280546109a09061137e565b80156109eb5780601f106109c2576101008083540402835291602001916109eb565b820191905f5260205f20905b8154815290600101906020018083116109ce57829003601f168201915b5050505050815260200160048201548152602001600582015f9054906101000a900460ff1615151515815250509050919050565b7f000000000000000000000000000000000000000000000000000000000000000081565b5f60035f8481526020019081526020015f205f9054906101000a900460ff16610a6e575f9050610bfd565b5f60015f8581526020019081526020015f206040518060c00160405290815f8201548152602001600182018054610aa49061137e565b80601f0160208091040260200160405190810160405280929190818152602001828054610ad09061137e565b8015610b1b5780601f10610af257610100808354040283529160200191610b1b565b820191905f5260205f20905b815481529060010190602001808311610afe57829003601f168201915b5050505050815260200160028201548152602001600382018054610b3e9061137e565b80601f0160208091040260200160405190810160405280929190818152602001828054610b6a9061137e565b8015610bb55780601f10610b8c57610100808354040283529160200191610bb5565b820191905f5260205f20905b815481529060010190602001808311610b9857829003601f168201915b5050505050815260200160048201548152602001600582015f9054906101000a900460ff16151515158152505090508060a00151158015610bf95750828160400151145b9150505b92915050565b6003602052805f5260405f205f915054906101000a900460ff1681565b6001602052805f5260405f205f91509050805f015490806001018054610c459061137e565b80601f0160208091040260200160405190810160405280929190818152602001828054610c719061137e565b8015610cbc5780601f10610c9357610100808354040283529160200191610cbc565b820191905f5260205f20905b815481529060010190602001808311610c9f57829003601f168201915b505050505090806002015490806003018054610cd79061137e565b80601f0160208091040260200160405190810160405280929190818152602001828054610d039061137e565b8015610d4e5780601f10610d2557610100808354040283529160200191610d4e565b820191905f5260205f20905b815481529060010190602001808311610d3157829003601f168201915b505050505090806004015490806005015f9054906101000a900460ff16905086565b5f60015f54610d7f91906116ac565b905090565b5f60035f8381526020019081526020015f205f9054906101000a900460ff169050919050565b6002602052805f5260405f205f915054906101000a900460ff1681565b6040518060c001604052805f8152602001606081526020015f8152602001606081526020015f81526020015f151581525090565b5f5ffd5b5f5ffd5b5f5ffd5b5f5ffd5b5f5ffd5b5f5f83601f840112610e2457610e23610e03565b5b8235905067ffffffffffffffff811115610e4157610e40610e07565b5b602083019150836001820283011115610e5d57610e5c610e0b565b5b9250929050565b5f819050919050565b610e7681610e64565b8114610e80575f5ffd5b50565b5f81359050610e9181610e6d565b92915050565b5f5f5f5f5f60608688031215610eb057610eaf610dfb565b5b5f86013567ffffffffffffffff811115610ecd57610ecc610dff565b5b610ed988828901610e0f565b95509550506020610eec88828901610e83565b935050604086013567ffffffffffffffff811115610f0d57610f0c610dff565b5b610f1988828901610e0f565b92509250509295509295909350565b5f819050919050565b610f3a81610f28565b82525050565b5f602082019050610f535f830184610f31565b92915050565b610f6281610f28565b8114610f6c575f5ffd5b50565b5f81359050610f7d81610f59565b92915050565b5f60208284031215610f9857610f97610dfb565b5b5f610fa584828501610f6f565b91505092915050565b5f8115159050919050565b610fc281610fae565b82525050565b5f602082019050610fdb5f830184610fb9565b92915050565b5f60208284031215610ff657610ff5610dfb565b5b5f61100384828501610e83565b91505092915050565b61101581610f28565b82525050565b5f81519050919050565b5f82825260208201905092915050565b8281835e5f83830152505050565b5f601f19601f8301169050919050565b5f61105d8261101b565b6110678185611025565b9350611077818560208601611035565b61108081611043565b840191505092915050565b61109481610e64565b82525050565b6110a381610fae565b82525050565b5f60c083015f8301516110be5f86018261100c565b50602083015184820360208601526110d68282611053565b91505060408301516110eb604086018261108b565b50606083015184820360608601526111038282611053565b9150506080830151611118608086018261100c565b5060a083015161112b60a086018261109a565b508091505092915050565b5f6020820190508181035f83015261114e81846110a9565b905092915050565b5f73ffffffffffffffffffffffffffffffffffffffff82169050919050565b5f61117f82611156565b9050919050565b61118f81611175565b82525050565b5f6020820190506111a85f830184611186565b92915050565b5f5f604083850312156111c4576111c3610dfb565b5b5f6111d185828601610f6f565b92505060206111e285828601610e83565b9150509250929050565b5f82825260208201905092915050565b5f6112068261101b565b61121081856111ec565b9350611220818560208601611035565b61122981611043565b840191505092915050565b61123d81610e64565b82525050565b5f60c0820190506112565f830189610f31565b818103602083015261126881886111fc565b90506112776040830187611234565b818103606083015261128981866111fc565b90506112986080830185610f31565b6112a560a0830184610fb9565b979650505050505050565b7f4e487b71000000000000000000000000000000000000000000000000000000005f52601160045260245ffd5b5f6112e782610f28565b91507fffffffffffffffffffffffffffffffffffffffffffffffffffffffffffffffff8203611319576113186112b0565b5b600182019050919050565b7f4e487b71000000000000000000000000000000000000000000000000000000005f52604160045260245ffd5b7f4e487b71000000000000000000000000000000000000000000000000000000005f52602260045260245ffd5b5f600282049050600182168061139557607f821691505b6020821081036113a8576113a7611351565b5b50919050565b5f819050815f5260205f209050919050565b5f6020601f8301049050919050565b5f82821b905092915050565b5f6008830261140a7fffffffffffffffffffffffffffffffffffffffffffffffffffffffffffffffff826113cf565b61141486836113cf565b95508019841693508086168417925050509392505050565b5f819050919050565b5f61144f61144a61144584610f28565b61142c565b610f28565b9050919050565b5f819050919050565b61146883611435565b61147c61147482611456565b8484546113db565b825550505050565b5f5f905090565b611493611484565b61149e81848461145f565b505050565b5b818110156114c1576114b65f8261148b565b6001810190506114a4565b5050565b601f821115611506576114d7816113ae565b6114e0846113c0565b810160208510156114ef578190505b6115036114fb856113c0565b8301826114a3565b50505b505050565b5f82821c905092915050565b5f6115265f198460080261150b565b1980831691505092915050565b5f61153e8383611517565b9150826002028217905092915050565b6115578261101b565b67ffffffffffffffff8111156115705761156f611324565b5b61157a825461137e565b6115858282856114c5565b5f60209050601f8311600181146115b6575f84156115a4578287015190505b6115ae8582611533565b865550611615565b601f1984166115c4866113ae565b5f5b828110156115eb578489015182556001820191506020850194506020810190506115c6565b868310156116085784890151611604601f891682611517565b8355505b6001600288020188555050505b505050505050565b828183375f83830152505050565b5f61163683856111ec565b935061164383858461161d565b61164c83611043565b840190509392505050565b5f6080820190508181035f83015261167081888a61162b565b905061167f6020830187611234565b818103604083015261169281858761162b565b90506116a16060830184610f31565b979650505050505050565b5f6116b682610f28565b91506116c183610f28565b92508282039050818111156116d9576116d86112b0565b5b9291505056fea2646970667358221220e275fd65c5e2302b652d347ab6e825ecb9a464ce8357e4e025a4ac8f9e0c118b64736f6c634300081e0033",
        "linkReferences": {}
    },
    "methodIdentifiers": {
        "certificateExists(uint256)": "65f8d239",
        "certificates(uint256)": "663b3e22",
        "collegeAddress()": "53bda469",
        "doesCertificateExist(uint256)": "9aa3d457",
        "doesHashExist(bytes32)": "1ee66770",
        "getCertificate(uint256)": "51640fee",
        "getTotalCertificates()": "7843bb79",
        "hashExists(bytes32)": "b535b5c3",
        "issueCertificate(string,bytes32,string)": "00235df1",
        "revokeCertificate(uint256)": "06f5497e",
        "verifyCertificate(uint256)": "1692a942",
        "verifyCertificateByHash(uint256,bytes32)": "545a5f5d"
    },
    "id": 19
}